:100000000C940B030C9428030C9428030C942803E1
:100010000C94FB0D0C94240E0C944D0E0C94760E47
:100020000C9428030C94DC0C0C94050D0C942E0DF0
:100030000C94A90D0C94570D0C94800D0C94D20DBA
:100040000C94610C0C948A0C0C94B30C0C94280343
:100050000C9428030C9428030C9428030C94280374
:100060000C9428030C9428030C9428030C94280364
:100070000C9428030C9428030C942803076342363D
:10008000B79BD8A71A39685618AEBAAB558C1D3C29
:10009000B7CC5763BD6DEDFD753EF6177231BF00ED
:1000A0000000803F08000000BE922449123EABAA27
:1000B000AA2ABECDCCCC4C3E00000080BEABAAAA82
:1000C000AA3E00000000BF000000803F00000000CA
:1000D00000084178D3BB4387D1133D190E3CC3BD03
:1000E0004282AD2B3E68EC8276BED98FE1A93E4CB0
:1000F00080EFFFBE01C4FF7F3F00000000006E6183
:100100006E00696E660000407A10F35A00A0724ECD
:1001100018090010A5D4E80000E87648170000E4AC
:100120000B54020000CA9A3B000000E1F5050000F4
:1001300080969800000040420F000000A086010059
:100140000000102700000000E80300000000640029
:10015000000000000A000000000001000000000094
:100160002C76D888DC674F0823DFC1DFAE59E1B1B8
:10017000B796E5E3E453C63AE651997696E8E6C2C7
:100180008426EB898C9B62ED407C6FFCEFBC9C9FCE
:1001900040F2BAA56FA5F490055A2AF75C936B6CF0
:1001A000F9676DC11BFCE0E40D47FEF520E6B500E4
:1001B000D0ED902E0300943577050080841E080052
:1001C00000204E0A000000C80C333333330F986E02
:1001D00012831141EF8D2114893BE65516CFFEE6BF
:1001E000DB18D1844B381BF77C1D901DA4BBE42485
:1001F000203284725E228100C9F124ECA1E53D2702
:1002000016050100000000000000FA000000E000F8
:10021000E00028FE28FE282454FE5448C4C81026B6
:10022000466C92AA44A000A0C0000000384482009E
:10023000008244380028107C102810107C10100018
:100240000A0C000010101010100006060000040830
:100250001020407C8A92A27C0042FE020042868AE4
:1002600092628482A2D28C182848FE08E4A2A2A23C
:100270009C3C5292920C808E90A0C06C9292926C98
:100280006092929478006C6C0000006A6C00001020
:1002900028448200282828282800824428104080EA
:1002A0008A90604C929E827C7E8888887EFE9292A4
:1002B000926C7C82828244FE82824438FE929292C8
:1002C00082FE909090807C8292925EFE101010FED2
:1002D0000082FE8200040282FC80FE10284482FE1E
:1002E00002020202FE403040FEFE201008FE7C8228
:1002F00082827CFE909090607C828A847AFE9098C4
:100300009462629292928C8080FE8080FC02020253
:10031000FCF8040204F8FC021C02FCC6281028C6E3
:10032000E0100E10E0868A92A2C200FE8282004097
:1003300020100804008282FE00204080402002023B
:100340000202020080402000042A2A2A1EFE1222F5
:10035000221C1C222222041C222212FE1C2A2A2ACF
:1003600018107E908040304A4A4A7CFE1020201EA1
:100370000022BE0200040222BC00FE08142200007B
:1003800082FE02003E2018201E3E1020201E1C224D
:1003900022221C3E28282810102828183E3E102013
:1003A0002010122A2A2A0420FC2202043C02020401
:1003B0003E38040204383C020C023C221408142289
:1003C000300A0A0A3C22262A322200106C820000DF
:1003D00000FE000000826C100008101008100000E1
:1003E0000000007F8181817F7F8383837F7F878778
:1003F000877F7F8F8F8F7F7F9F9F9F7F7FBFBFBFB5
:100400007F7FFFFFFF7F2040FF40206215171565AB
:1004100000FBFB00000000000000C0FF0300E0FF45
:100420000700F0FF0F00F8FF1F0078001E007800A3
:100430001E0078001E0078001E0078001E00780064
:100440001E0078001E0078001E0078001E000000CC
:1004500000000000000080FF0300E0FF0700F0FF45
:100460000F00F8FF1F00F83C1F00783C1E00783C8E
:100470001E00783C1E00783C1E00783C1E00783C34
:100480001E00783C1E00783C1E00783C1E00783C24
:100490001E000000000000000000E0FF0300F0FF6D
:1004A0000700F8FF0F00F8FF1F00783C1E00783CA3
:1004B0001E00783C1E00783C1E00783C1E00783CF4
:1004C0001E00783C1E00783C1E00783C1E00783CE4
:1004D0001E000000000000000000F8FF0300F8FF0D
:1004E0000F00F8FF1F00F8FF1F0000001E000000B3
:1004F0001E0000801F0000F01F0000FF0F00E0FF43
:100500000700F0FF0000F80F0000F800000078007E
:10051000000078000000F8FF1F00F8FF1F00F0FF48
:100520001F00E0FF1F000000000000000000F8FFB7
:100530001F00F8FF1F00F8FF1F00F8FF1F007800E2
:100540001E00783C1E00783C1E00783C1E00783C63
:100550001E00783C1E00783C1E00F87E1F00F8FF4D
:100560001F00F0FF0F00E0E70300000000000000A4
:100570003800EEFF6C002A8045003A0047FC03FF7C
:100580006CFC83FF3900DEFF0B7CD0810BFCD0813B
:100590000BC0D0810BFCD0810B7CDEFF0B0082FFF7
:1005A000397002FF6CF83A0047DC2A8045CCEEFF38
:1005B0006CCC000038000000000C00001E0C000095
:1005C0001E0000001E0000001E0000001E00F8FFBC
:1005D0001F00F8FF1F00F8FF1F00F8FF1F000000BA
:1005E0001E0000001E0000001E0000001E00000093
:1005F0005E000000400000007C00000040000000A1
:10060000400000007C0000003000000010000000EE
:10061000300000007C0011241FBECFEFD8E0DEBF09
:10062000CDBF11E0A0E0B1E0E0E4FCE402C0059041
:100630000D92A83FB107D9F723E0A8EFB1E001C0C0
:100640001D92A232B207E1F70E949F030C941E266E
:100650000C9400008FE00E944B0A882311F082E086
:1006600008950E94940381E008958FE00E94580A43
:10067000882319F420E030E013C080917A00806470
:1006800080937A0080917A0086FDFCCF30917800CB
:1006900020917900922F80E0232F30E0282B392BF6
:1006A000C9010895ECE7F0E090818295880F880FEA
:1006B000807C9F73982B90830895582F8091000120
:1006C0008830D8F440917E0021E030E0B90102C0CA
:1006D000660F771F8A95E2F7CB018095842380937C
:1006E0007E0080917E00052E02C0220F331F0A94E7
:1006F000E2F7822B80937E000DC020917E0081E086
:1007000090E0052E02C0880F991F0A94E2F7282B6B
:1007100020937E005093000180917C005F71807E69
:10072000852B80937C0008958FE180937C00EAE71D
:10073000F0E087E0808380818068808308950E9454
:100740005F0C0E94510C0E942B1980E090E00895EC
:100750000F931F9385E00E94580A8823C1F080E41C
:1007600060E00E94BC0400E0802F60E00E94500422
:1007700010E080E061E00E94BC041F5F1038C9F700
:100780000F5F043089F783E060E00E94AA041F91A4
:100790000F9108950F931F9385E00E944B0A8823C1
:1007A00011F082E07AC00E940705182F0E94180BF2
:1007B0001150123008F06DC08150823008F069C0CD
:1007C0000E94D7048EEA60E00E94BC0482EA60E0E6
:1007D0000E94BC0480EA60E00E94BC0400E513ECC7
:1007E000C8010197F1F780EC60E00E94BC048FE241
:1007F00060E00E94BC0481E860E00E94BC0486E1E5
:1008000060E00E94BC0482E260E00E94BC04C80177
:100810000197F1F78FEA60E00E94BC0486EA60E08D
:100820000E94BC0485EA60E00E94BC0480E090E085
:1008300028E833E1F9013197F1F7019643E0883E6A
:100840009407C1F783EB60E00E94BC0480E460E0A1
:100850000E94BC0483E060E00E94500483E060E0FA
:100860000E94AA041092BA021092BC021092BB021B
:100870008BE091E090931F0380931E0388E10E9418
:1008800089040E94A80384EA60E00E94BC0481E01D
:1008900004C085E00E943B0A87E01F910F910895F4
:1008A000FF920F931F93082FF62E85E00E94580A9F
:1008B0008823A1F01F2D1F770370802F806B60E0CD
:1008C0000E94BC0412951F70812F806160E00E941D
:1008D000BC048F2D8F7060E00E94BC041F910F91AB
:1008E000FF9008950F931F93082F162F85E00E9405
:1008F000580A882359F0812F153108F084E166E009
:10090000869FB0011124802F0E94AA041F910F918D
:1009100008951F93182F85E00E94580A8823C1F07C
:1009200087E00E94490582E06AE00E949A0582E021
:1009300061EB0E949A05612F113208F060E282E0BB
:100940000E949A0589EE8A95F1F787E00E94490591
:100950001F9108950F931F93082F162F85E00E9473
:10096000580A882331F003701F771093B802009360
:10097000B9021F910F9108950F931F93082F162FFF
:1009800085E00E94580A882379F0112319F011306C
:1009900021F402C02B9801C02B9A86E08A95F1F7CA
:1009A00080E0602F0E949A051F910F910895239A6D
:1009B000089586E00E944B0A882311F082E0089592
:1009C0000E94F00481E008951F93182F86E00E9492
:1009D000580A882319F0812F0E94F9041F91089565
:1009E000559A569A80E20E945D0F80E40E945D0F46
:1009F0000895282F85FF04C08BB190E289278BB919
:100A000026FF04C08BB190E489278BB9089582E05A
:100A10000E944B0A882311F082E008950E94A905E4
:100A200080E064EE7FE00E94400581E06CED7FE0B5
:100A30000E94400582E064ED7FE00E94400586E070
:100A40006CEE7FE00E94400583E06CEC7FE00E944A
:100A5000400584E06CEC7FE00E94400585E06CEC92
:100A60007FE00E94400587E06CEC7FE00E9440053B
:100A70008FEF8093BD0287E00E94490581E00895D1
:100A8000E82FF0E0EE0FFF1FEB5AFD4F71836083FC
:100A900008951F93182F82E00E94580A882309F4B2
:100AA00047C0912F97708091BD02981709F440C0FC
:100AB0009093BD0285B1887F892B85B9933011F160
:100AC000943028F4913051F0923090F40CC095306D
:100AD00019F19530E0F0963021F50FC0E091570202
:100AE000F091580222C0E0915502F09156021DC0CB
:100AF000E0915902F0915A0218C0E0916102F09120
:100B0000620213C0E0915B02F0915C020EC0E091C2
:100B10005D02F0915E0209C0E0915F02F091600217
:100B200004C0E0916302F0916402309709F00995E6
:100B30001F9108951F93162F0E94490582E00E947D
:100B4000580A882321F01EBD0DB407FEFDCF1F916A
:100B50000895259A2698279A209A219A229A0895EC
:100B60002F923F924F925F926F927F928F929F92BD
:100B7000AF92BF92CF92DF92EF92FF920F931F93AB
:100B8000DF93CF930F92CDB7DEB7582E962E442E1B
:100B90003901C9821501CE88DF88A88CB98C6A8D8D
:100BA0007B8D81E0981619F1981628F092E099163D
:100BB00009F070C03EC080E0B7010E94E10780E00C
:100BC000642DA30198010981EE24E39475EFC72EEB
:100BD00072E0D72E0E94A108552009F05BC000D01A
:100BE0000F92EDB7FEB71182338222821CC081E0E2
:100BF0000E94E10781E0682DA60195010C8DEE248D
:100C0000E39495EFC92E92E0D92E0E94A1085520B9
:100C100009F040C000D00F92EDB7FEB791828D8DE4
:100C20009E8D938382830E94DE090F900F900F9018
:100C300031C0C7010E94030800D085EF92E0EDB7F4
:100C4000FEB792838183842DB301A8012981082DE9
:100C500076016501AC8C882483940E9434090F903E
:100C60000F905520B9F400D000D00F92ADB7BEB7A9
:100C70001196EDB7FEB79182FD01328221828D8DF2
:100C80009E8D948383830E94DE090F900F900F90B6
:100C90000F900F900F90CF91DF911F910F91FF90C8
:100CA000EF90DF90CF90BF90AF909F908F907F900C
:100CB0006F905F904F903F902F9008954F925F926A
:100CC0007F928F929F92AF92BF92CF92DF92EF92DC
:100CD000FF920F931F93DF93CF93CDB7DEB7562FBD
:100CE000942E7C2CAA89BB89CC88DD886E897F896B
:100CF000988D813009F445C0813030F1823009F09F
:100D000066C0513071F0513020F0523009F05FC0B0
:100D100011C080E0B7010E94E10780E0692DA801C1
:100D200006C081E00E94E10781E0682DA6010E94D3
:100D30006C074DC0C7010E940308892DB801482DDA
:100D400096010E94830743C0EDB7FEB739970FB6EF
:100D5000F894FEBF0FBEEDBF4DB65EB60894411CC1
:100D6000511CB283A183F201D382C2827583648352
:100D70009683898D9A8D9087878380E0652FC72C15
:100D80001CC0EDB7FEB739970FB6F894FEBF0FBE83
:100D9000EDBFADB6BEB60894A11CB11CB283A18351
:100DA000F501D382C282758364839683108617828D
:100DB00081E0652FC72CAA24BB240E94B0058DB703
:100DC0009EB709960FB6F8949EBF0FBE8DBFCF9108
:100DD000DF911F910F91FF90EF90DF90CF90BF9028
:100DE000AF909F908F907F905F904F90089587E095
:100DF0000E944B0A882311F082E008950E94310A74
:100E000081E08093F4021092BE021092BF02109211
:100E1000C1021092C0021092C3021092C20210923C
:100E2000C5021092C4021092C7021092C60210921C
:100E3000C9021092C8021092CB021092CA021092FC
:100E4000CD021092CC021092CF021092CE021092DC
:100E5000D1021092D0021092D3021092D2021092BC
:100E6000D5021092D4021092D7021092D60210929C
:100E7000DC021092DD021092DE021092DF0210926C
:100E8000E1021092E2021092E3021092E402109248
:100E9000E5021092E6021092E7021092E902109227
:100EA000E8021092EB021092EA021092ED02109208
:100EB000EC021092EF021092EE021092D902109200
:100EC000D8021092DB021092DA021092F302109212
:100ED000F2021092F4020895EF92FF920F931F9383
:100EE000182F062F7A0160E00E944008812F602FA2
:100EF0000E942108812FB7010E9455081F910F9170
:100F0000FF90EF900895CF92DF92EF92FF920F93B0
:100F10001F93C82E7B01D42E890182E060E00E94DD
:100F200040088C2D6D2D0E943608C701B8010E9423
:100F300082081F910F91FF90EF90DF90CF9008955E
:100F40002EEF8037920714F480E79EEFFC0181E0DA
:100F5000E139F80714F0E0E9F1E09B018EEF60372A
:100F6000780714F420E73EEFA90121E04139520748
:100F700014F040E951E08F2F881F8827881F252F04
:100F8000221F2227221F91E09093F4028093E10216
:100F90002093E202CF01F7FF03C0909581959F4F08
:100FA0009A0157FF03C0309521953F4F9093C1029E
:100FB0008093C0023093C3022093C2021092F402C5
:100FC0000895482F81E08093F402CB0123E0693E2D
:100FD000720710F088EE93E0413071F0413018F064
:100FE000423071F405C09093C9028093C80208C0D2
:100FF0009093C9028093C8029093CB028093CA0257
:101000001092F402089521E02093F402AC0183E0F1
:10101000493E580710F048EE53E09B0183E0693EDB
:10102000780710F028EE33E0F8945093C90240930B
:10103000C8023093CB022093CA0278941092F40233
:101040000895982F81E08093F402913051F091300F
:1010500018F0923041F403C06093E10204C0609341
:10106000E1026093E2021092F402089591E09093FD
:10107000F402E1EEF2E0819360831092F4020895AD
:10108000982F81E08093F402913051F0913018F064
:10109000923041F403C06093BE0204C06093BE026C
:1010A0006093BF021092F4020895482F81E080936C
:1010B000F402CB0121E06139720710F080E991E080
:1010C000413061F0413018F04230C9F40EC0F8945C
:1010D0009093C1028093C002789411C0F8949093C9
:1010E000C3028093C20278940AC0F8949093C1021C
:1010F0008093C0029093C3028093C20278941092AE
:10110000F4020895AC0181E08093F402F894CB01DD
:1011100021E06139720710F080E991E09093C302F9
:101120008093C2029A0181E04139580710F020E90A
:1011300031E03093C1022093C00278941092F402FF
:1011400008958F929F92AF92BF92CF92DF92EF92CB
:10115000FF920F931F93CF93DF93182FF62E4A0120
:101160005901E60187E00E94580A882309F46FC0FC
:10117000812F61E00E944008812FB401A5010E94E7
:10118000C611812F6F2D0E942108812F602F0E9490
:10119000B111812FB4010E948911C114D10499F0B9
:1011A000113049F0113018F0123069F406C018827D
:1011B0001092F00208C0198204C01882198210929D
:1011C000F0021092F102D093F302C093F202EE20EB
:1011D000B9F588EF91E09093F3028093F202812FAA
:1011E000B5010E945508812F0E947411113071F0D1
:1011F000113018F0123059F512C01092F801109207
:10120000F0028091F8018823E1F321C01092F901E6
:101210001092F1028091F9018823E1F318C0109235
:10122000F8011092F9011092F0021092F1028091EF
:10123000F8018823E1F38091F9018823C1F307C005
:10124000812FB5010E945508812F0E947411DF91F2
:10125000CF911F910F91FF90EF90DF90CF90BF90B3
:10126000AF909F908F9008953F924F925F926F92B0
:101270007F928F929F92AF92BF92CF92DF92EF9226
:10128000FF920F931F93DF93CF93CDB7DEB7982EC6
:101290002B013A01322EB02E0C891D8987E00E9465
:1012A000580A882309F453C082E061E00E94400894
:1012B00080E0B201A3010E94C61181E0B701A6013E
:1012C0000E94C611892D6B2D0E94360880E0632D87
:1012D0000E94B11181E06A2D0E94B111C201B701D3
:1012E0000E94A4110115110539F0F8011082118234
:1012F0001092F0021092F1021093F3020093F202A6
:101300008820F1F48AEF91E09093F3028093F20247
:10131000C301B6010E94820882E00E9474111092FB
:10132000FA011092FB011092F0021092F1028091EA
:10133000FA018823E1F38091FB018823C1F307C000
:10134000C301B6010E94820882E00E947411CF910D
:10135000DF911F910F91FF90EF90DF90CF90BF90A2
:10136000AF909F908F907F906F905F904F903F9045
:1013700008950F931F93182F062F662349F460E0FA
:1013800070E00E945508812F60E070E00E94891192
:1013900081E08093F402113051F0113018F01230D6
:1013A00041F403C00093DC0204C00093DC0200930C
:1013B000DD021092F4021F910F910895CF92DF92F7
:1013C000EF92FF920F931F93DF93CF93CDB7DEB7CA
:1013D0001B8587E00E94580A8823D1F1113061F003
:1013E000113018F01230A1F511C0EC85FD85809107
:1013F000F5028823E1F306C0EC85FD858091F602B5
:101400008823E1F3309721F1099522C0CC84DD8453
:10141000EE84FF8400E010E0002351F48091F50297
:10142000882331F0C114D10411F0F601099501E0CF
:10143000112351F48091F602882331F0E114F10474
:1014400011F0F701099511E0002331F3112321F385
:10145000CF91DF911F910F91FF90EF90DF90CF9090
:1014600008953A9A3B9A3C9A3D9A3E9A3F9A88B19F
:10147000837088B90895853160F4E82FF0E0ED5568
:10148000FD4F8081882329F0808181508083808175
:1014900008958FEF0895853110F080E00895E82FCA
:1014A000F0E0ED55FD4F80818F5F8083815008957E
:1014B000853110F080E00895E82FF0E0ED55FD4F04
:1014C0008081811181E008951F93182F8091FD0183
:1014D000882341F080910402882399F01092FD0145
:1014E000109204020E94E70A8093FC018EEF91E0C3
:1014F00061E040E028E230E00E94AA0B81E08093A6
:10150000FD019091FC01133018F0133079F409C0FB
:10151000E12FF0E0EF5FFE4F8081892341F081E011
:1015200006C091FF03C0892F817001C080E01F9128
:1015300008951F93CF93DF93182F8091080288237B
:1015400041F080911202882399F0109208021092C3
:1015500012020E94E70A809307028CE092E061E0A9
:1015600040E022E330E00E94AA0B81E08093080271
:1015700090910702A12FB0E0ED01CB5FDE4F888193
:10158000882369F0FD01E85FFE4F80819823C1F058
:10159000FD01E75FFD4F81E08083188211C0FD01EE
:1015A000E75FFD4F808181111082FD01E85FFE4FF2
:1015B0008081982329F4FD01EB5FFE4F81E0808359
:1015C000A75FBD4F8C91DF91CF911F9108950F932D
:1015D0001F9381E00E94580A882311F400E024C080
:1015E00087E00E94490582E06AE00E949A0582E055
:1015F00062EB0E949A0518EC812F8A95F1F782E040
:1016000060E00E94F50F082F812F8A95F1F782E0A4
:1016100060E00E94F50F1A95F1F787E00E944905F6
:1016200088E893E10197F1F7802F1F910F910895BA
:10163000DF93CF9300D00F92CDB7DEB781E00E9449
:101640004B0A882311F082E011C00E9407058150E7
:10165000823040F40E943C0BCE0101960E941A1287
:1016600081E004C081E00E943B0A87E00F900F9068
:101670000F90CF91DF91089510920C0310920B03FD
:1016800010920E0310920D031092100310920F038C
:10169000109212031092110310921403109213036C
:1016A00080E991E09093F8028093F7029093FA0218
:1016B0008093F9029093FC028093FB029093FE02C8
:1016C0008093FD02909300038093FF0284E398E0EF
:1016D0009093020380930103909304038093030388
:1016E0009093060380930503909308038093070368
:1016F00090930A038093090308950F931F93DF9338
:10170000CF93CDB7DEB729970FB6F894DEBF0FBEE3
:10171000CDBF8C0188E00E94580A882311F491E023
:101720000DC0CE01019661E040E098010E94AA0B35
:10173000982F882319F48F818823E9F3892F29961C
:101740000FB6F894DEBF0FBECDBFCF91DF911F91D2
:101750000F910895EF92FF920F931F93CF93DF9312
:10176000EC01F62EE42E890188E00E94580A8823B5
:1017700011F481E026C084E090E00E942F23FC0158
:10178000009711F482E01DC0F982F0FC1E8281E016
:10179000E81619F489818460898389818860898346
:1017A0001B830A831D830C83D183C083138212821F
:1017B00081E080937502CF010E94E80B10927502C0
:1017C00080E0DF91CF911F910F91FF90EF900895EE
:1017D000CF92DF92EF92FF920F931F93CF93DF93FD
:1017E000EC0180911503882339F4D0931703C0933B
:1017F00016030E94731247C0C0901603D0901703BF
:1018000000E010E0EE24FF2437C0A881B981FD017B
:1018100064817581F60140815181FA01848195814D
:101820009B01281B390B37FF0FC0861B970B958335
:101830008483DB82CA82012B29F4D0931703C093DF
:10184000160321C0F7010CC0F60182819381211596
:10185000310549F4FD01158214829B838A83F601C8
:10186000D383C28310C0FD01358324830097B9F36D
:101870000F5F1F4F76016C018091150390E00817F0
:10188000190718F2ECCF809115038F5F8093150331
:10189000DF91CF911F910F91FF90EF90DF90CF904C
:1018A00008950E9403120E946E0F0E949F0E0E94D4
:1018B00057120E9407050E94180B789408950000A3
:1018C00008951F920F920FB60F9211242F933F93FA
:1018D0004F935F936F937F938F939F93AF93BF9338
:1018E000EF93FF93E0913502F0913602309709F0C3
:1018F0000995FF91EF91BF91AF919F918F917F914A
:101900006F915F914F913F912F910F900FBE0F906C
:101910001F9018951F920F920FB60F9211242F93BC
:101920003F934F935F936F937F938F939F93AF9367
:10193000BF93EF93FF93E0913702F0913802309715
:1019400009F00995FF91EF91BF91AF919F918F9110
:101950007F916F915F914F913F912F910F900FBEAB
:101960000F901F9018951F920F920FB60F9211248F
:101970002F933F934F935F936F937F938F939F9397
:10198000AF93BF93EF93FF93E0913902F0913A0246
:10199000309709F00995FF91EF91BF91AF919F9119
:1019A0008F917F916F915F914F913F912F910F9008
:1019B0000FBE0F901F9018951F920F920FB60F92A7
:1019C00011242F933F934F935F936F937F938F9344
:1019D0009F93AF93BF93EF93FF93E0912702F09112
:1019E0002802309709F00995FF91EF91BF91AF91CF
:1019F0009F918F917F916F915F914F913F912F9127
:101A00000F900FBE0F901F9018951F920F920FB658
:101A10000F9211242F933F934F935F936F937F9374
:101A20008F939F93AF93BF93EF93FF93E09129021E
:101A3000F0912A02309709F00995FF91EF91BF913B
:101A4000AF919F918F917F916F915F914F913F9156
:101A50002F910F900FBE0F901F9018951F920F920D
:101A60000FB60F9211242F933F934F935F936F9371
:101A70007F938F939F93AF93BF93EF93FF93E091E7
:101A80002B02F0912C02309709F00995FF91EF910C
:101A9000BF91AF919F918F917F916F915F914F9186
:101AA0003F912F910F900FBE0F901F9018951F928E
:101AB0000F920FB60F9211242F933F934F935F9382
:101AC0006F937F938F939F93AF93BF93EF93FF9306
:101AD000E0912F02F0913002309709F00995FF91C3
:101AE000EF91BF91AF919F918F917F916F915F9196
:101AF0004F913F912F910F900FBE0F901F9018950F
:101B00001F920F920FB60F9211242F933F934F9372
:101B10005F936F937F938F939F93AF93BF93EF9355
:101B2000FF93E0913102F0913202309709F009956C
:101B3000FF91EF91BF91AF919F918F917F916F91A5
:101B40005F914F913F912F910F900FBE0F901F907B
:101B500018951F920F920FB60F9211242F933F9357
:101B60004F935F936F937F938F939F93AF93BF93A5
:101B7000EF93FF93E0912D02F0912E02309709F040
:101B80000995FF91EF91BF91AF919F918F917F91B7
:101B90006F915F914F913F912F910F900FBE0F90DA
:101BA0001F9018951F920F920FB60F9211242F932A
:101BB0003F934F935F936F937F938F939F93AF93D5
:101BC000BF93EF93FF93E0913302F091340230978B
:101BD00009F00995FF91EF91BF91AF919F918F917E
:101BE0007F916F915F914F913F912F910F900FBE19
:101BF0000F901F9018951F920F920FB60F921124FD
:101C00002F933F934F935F936F937F938F939F9304
:101C1000AF93BF93EF93FF93E0911D02F0911E02EB
:101C2000309709F00995FF91EF91BF91AF919F9186
:101C30008F917F916F915F914F913F912F910F9075
:101C40000FBE0F901F9018951F920F920FB60F9214
:101C500011242F933F934F935F936F937F938F93B1
:101C60009F93AF93BF93EF93FF93E0911F02F09187
:101C70002002309709F00995FF91EF91BF91AF9144
:101C80009F918F917F916F915F914F913F912F9194
:101C90000F900FBE0F901F9018951F920F920FB6C6
:101CA0000F9211242F933F934F935F936F937F93E2
:101CB0008F939F93AF93BF93EF93FF93E091210294
:101CC000F0912202309709F00995FF91EF91BF91B1
:101CD000AF919F918F917F916F915F914F913F91C4
:101CE0002F910F900FBE0F901F9018951F920F927B
:101CF0000FB60F9211242F933F934F935F936F93DF
:101D00007F938F939F93AF93BF93EF93FF93E09154
:101D10002302F0912402309709F00995FF91EF9189
:101D2000BF91AF919F918F917F916F915F914F91F3
:101D30003F912F910F900FBE0F901F90189580E14B
:101D40000E944B0A882311F082E00895E5E1F2E059
:101D50001192119282E0E535F807D1F781E00895FC
:101D6000FF920F931F93CF93DF93F82E8AE0F8161C
:101D7000B1F08F1548F0E8E0FE16B9F1EF1538F133
:101D8000F7E0FF1651F43BC08DE0F81659F0EBE197
:101D9000FE1689F0FCE0FF1641F001E041C0109210
:101DA000B80203C01092B8023AC08091B9028150C3
:101DB0008093B90234C00E94A80314C080E061E09F
:101DC0000E94BC048091B8028F5F8093B80280911A
:101DD000B80287FFF3CF1092B8028091B902815008
:101DE0008093B90200E011E01CC08091B802882302
:101DF000B1F08091B80286508093B80210C081E0A3
:101E00000E94C61064EF71E080E090E04DE750E082
:101E100024E630E00E94D21081E00E942D1000E004
:101E200010E08091B9026091B8020E945004002332
:101E300051F185E0F89EC0011124EC01CD59DE4F2F
:101E40008C0108591E4FFE01849161E00E94BC0480
:101E50002196C017D107B9F780E061E00E94BC0469
:101E60008091B8028A5F8093B8028091B80290E0B6
:101E70008C3791053CF01092B8028091B9028150E4
:101E80008093B90211E08091B90283708093B90206
:101E9000113059F48091BA02813039F4E091BB02DB
:101EA000F091BC02309709F0099580E090E0DF9155
:101EB000CF911F910F91FF9008951F93182F86E0E7
:101EC0000E94580A882319F0812F0E94690F1F91E0
:101ED000089585FD5D9886FD5E980895F8940E94AA
:101EE000C90F81E00E94760F81E00895813049F0AA
:101EF000F894813020F18230B1F0833009F045C090
:101F000017C02C9A80E8809361001092610080E0F5
:101F100090E00000019688329105D9F71092680090
:101F200010926B00089580E88093610083E004C004
:101F300080E88093610088E08093610028C080E0A1
:101F400090E0000001962DE680369207D1F72C989C
:101F500080E090E0000001962DE680369207D1F7F0
:101F600010927A008FEF8093640080916800816006
:101F70008093680080916B00846080936B007894FC
:101F800083B7816083BF88950895823008F0789484
:101F90000895249A2C9A089583E58CBD81E08DBD27
:101FA0008DE08A95F1F7089583E58CBD1DBC84EF23
:101FB00091E00197F1F708958FE78CBD1DBC84EF88
:101FC00091E00197F1F7089583E58CBD81E08DBD27
:101FD0008DE08A95F1F7089583E58CBD81E08DBD94
:101FE00084EF91E00197F1F708951F93162F0E9457
:101FF000490582E00E94580A882329F01EBD0DB4CD
:1020000007FEFDCF8EB51F9108958AE00E943B0A1E
:10201000882329F481E00E94281110926602089515
:1020200089E00E943B0A8823B9F4809165028823E5
:1020300011F00E946E1182E00E94281180917302BB
:1020400090917402009731F00E94C723109274029D
:1020500010927302109265020895813029F0823047
:1020600029F40E94101008950E94051008950F93FE
:102070001F93CF93DF9380E291E00E942F239C0176
:102080009093740280937302892B11F480E039C01D
:102090008901C0E0D0E0BE0180E090E00E94C61F50
:1020A00020E030E040EA51E40E941E1F27EF35E7B0
:1020B00040E05FE30E94BA209B01AC0160E070E069
:1020C00080E291E40E9427219B01AC01CA01B90181
:1020D0002DEC3CEC42E851E40E94BA200E947D20A5
:1020E0002AE030E040E050E00E94AC22F801619329
:1020F0007193819391938F012196C834D10559F63C
:1021000081E0DF91CF911F910F9108958AE00E94A5
:102110004B0A882311F082E0089510927002109209
:102120006F0281E00E94441181E08093660208956D
:102130001F9389E00E944B0A882311F082E024C09B
:102140008BE00E94580A8823D9F40E943710182F78
:10215000813011F086E018C0109267021092680278
:102160001092690210926A028DE06BEA72E10E949D
:10217000861282E00E9444111093650281E004C03F
:1021800089E00E943B0A87E01F910895813021F089
:10219000823029F084E008950E94861008950E94FC
:1021A000981008956F927F928F929F92AF92BF92F4
:1021B000CF92DF92EF92FF920F931F93CF93DF9313
:1021C0003B014C015A01E9018AE00E94580A882328
:1021D00081F1209741F19501442737FD4095542F17
:1021E000BE01C536D10510F064E670E080E090E0F5
:1021F0000E94AC2224E630E040E050E00E94BC2285
:1022000079018A01C401B3010E94AE12C7010E9484
:102210007D0B60E070E080E090E00E94AE12C501AE
:102220008E199F0904C0A114B10419F0C5010E94C0
:102230007D0BDF91CF911F910F91FF90EF90DF9079
:10224000CF90BF90AF909F908F907F906F900895A8
:10225000823029F4809181008E7F8093810080916B
:102260006502813031F480916602813011F4000002
:10227000089580916502813021F08091660281305D
:1022800011F45F9857980895982F809165028823DC
:1022900031F480916602882311F4579A5F988091F7
:1022A00065028823D1F49230C1F41092800010921C
:1022B00081008091810088608093810080918100FD
:1022C000816080938100109285001092840081E0EB
:1022D0008093890080E9809388000895EFE6F0E01C
:1022E00080818D7F80830895982F81E08093F40210
:1022F000913051F0913018F0923041F403C01092B7
:10230000DC0204C01092DC021092DD021092F40292
:102310000895982F81E08093F402913071F091300C
:1023200018F0923071F405C07093D1026093D0021E
:1023300008C07093D1026093D0027093D30260936F
:10234000D2021092F402089521E02093F402E0ED0D
:10235000F2E0918380833296718360831092F4025D
:102360000895982F81E08093F402913051F09130DC
:1023700018F0923041F403C06093DE0204C0609311
:10238000DE026093DF021092F40208950F931F9310
:10239000CF93DF93EB018A01813001F1813018F096
:1023A000823061F50DC08091C8029091C902892BDD
:1023B00011F080E01AC01092D5021092D4021EC013
:1023C0008091C8029091C902892B21F080E00E947F
:1023D000131304C01092D5021092D4028091CA0245
:1023E0009091CB02892B31F081E0BE01A8010E94BF
:1023F000131304C01092D7021092D602DF91CF912E
:102400001F910F910895CF93DF93C0E0D0E08C2F00
:1024100060E00E9412122196C531D105C1F7DF910B
:10242000CF910895853128F4E82FF0E0ED55FD4F68
:10243000608308951F93CF93DF93EC01009799F188
:1024400081E00E94580A882351F187E00E944905E3
:1024500018EC812F8A95F1F782E06AE00E949A05D4
:1024600082E064EB0E949A05812F8A95F1F782E061
:1024700060E00E94F50F8883812F8A95F1F782E052
:1024800060E00E94F50F89831A95F1F782E060E021
:102490000E94F50F8A8387E00E94490504C01882D4
:1024A00019828DE28A83DF91CF911F91089588E090
:1024B0000E944B0A882311F082E0089510921503C0
:1024C0001092170310921603109275021092760262
:1024D00080E160E873E10E949A120E9477120E94E4
:1024E000801281E0089581E080937602089584B59A
:1024F000826084BD85B5846085BD8EE487BD089506
:10250000EEE6F0E08081826080830895E82F8032DB
:1025100068F48051833050F0F0E0EE0FFF1FEB5E67
:10252000FD4F208131817183608302C020E030E063
:10253000C9010895803218F020E030E00AC0E82F89
:10254000F0E0EE0FFF1FEB5EFD4F208131817183C4
:102550006083C90108950E94D2120895EF92FF92FC
:102560000F931F937B018C018AE00E94580A8823F5
:10257000A1F080916602882381F0D801C701880FFD
:10258000991FAA1FBB1F9093720280937102E114DE
:10259000F1040105110509F45F981F910F91FF9057
:1025A000EF9008958091670290916802A09169026E
:1025B000B0916A0220916B0230916C0240916D02E1
:1025C00050916E02280F391F4A1F5B1F209367022C
:1025D000309368024093690250936A0280916702C7
:1025E00090916802A0916902B0916A028851964F59
:1025F000A040B040BCF08BB180588BB9809167028D
:1026000090916802A0916902B0916A028851964F38
:10261000A040B0408093670290936802A093690243
:10262000B0936A020895EF92FF920F931F93CF9396
:10263000DF93EB01882321F0813009F05AC02DC0CF
:102640009A0140E050E0CA01B9010E94AC222091F9
:10265000C8023091C902220F331F40E050E00E94AF
:10266000BC2279018A01A8019701220F331F441F60
:10267000551FCE01A0E0B0E082179307A407B5076D
:1026800028F0F092D502E092D40233C0D695C795D7
:10269000D093D502C093D4022CC09A0140E050E000
:1026A000CA01B9010E94AC222091CA023091CB022A
:1026B000220F331F40E050E00E94BC2279018A01C2
:1026C000A8019701220F331F441F551FCE01A0E020
:1026D000B0E082179307A407B50728F0F092D7025D
:1026E000E092D60206C0D695C795D093D702C09384
:1026F000D602DF91CF911F910F91FF90EF90089537
:102700000E9487130E94C7130E94A013089588E0B7
:102710000E94580A882311F484E00895809176027B
:10272000882311F483E0089580917502882311F0C5
:1027300082E008950E9414168130E1F380E008954C
:1027400080916602813011F580916F029091700244
:102750002091710230917202280F391F309370025C
:1027600020936F0280916F0290917002885E934077
:102770006CF08BB180588BB980916F029091700290
:10278000885E93409093700280936F02089587E073
:102790000E94580A882309F4AAC08091C802909127
:1027A000C902892B09F18091EC029091ED022091F0
:1027B000C8023091C902820F931F9093ED0280935B
:1027C000EC028091EC029091ED02885E9340A4F0BF
:1027D0008091EC029091ED02885E93409093ED021F
:1027E0008093EC0241E009C08091C0029091C10247
:1027F0009093C5028093C40240E08091CA029091F8
:10280000CB02892B09F18091EE029091EF02209189
:10281000CA023091CB02820F931F9093EF028093F4
:10282000EE028091EE029091EF02885E9340A4F058
:102830008091EE029091EF02885E93409093EF02B8
:102840008093EE0261E009C08091C2029091C302C0
:102850009093C7028093C60260E0842F0E94781490
:102860008091E8029091E9022091C4023091C50262
:10287000280F391F3093E9022093E8028091E80283
:102880009091E902885E934014F440E00BC080917F
:10289000E8029091E902885E93409093E902809368
:1028A000E80241E08091EA029091EB022091C60299
:1028B0003091C702280F391F3093EB022093EA02B0
:1028C0008091EA029091EB02885E934014F460E0FC
:1028D0000BC08091EA029091EB02885E9340909346
:1028E000EB028093EA0261E0842F0E94BD140895F8
:1028F0008823F1F02091C0023091C1028091C4027E
:102900009091C502281B390B1216130634F48091DE
:10291000C4029091C502019607C0232B49F0809113
:10292000C4029091C50201979093C5028093C4029E
:10293000662311F12091C2023091C3028091C60238
:102940009091C702281B390B1216130654F480917C
:10295000C6029091C70201969093C7028093C60267
:102960000895232B49F08091C6029091C7020197E8
:102970009093C7028093C60208950F931F93182F58
:10298000062F8091F402882309F0E7C08091DC02D1
:10299000882309F05AC08091C4029091C502892B06
:1029A000E9F480917702837E809377021092E502AA
:1029B0008091F002882309F45DC06091DE0280E01E
:1029C0000E94B909E091F202F091F302309709F404
:1029D00051C081E080831092F0024CC08091BE0211
:1029E000813041F48091D0029091D102019711F48D
:1029F00011E002C01123F1F1E091E302F0E0E75EA3
:102A0000FE4F90917702937E8081892B809377028D
:102A10008091E102882321F48091E3028F5F03C05B
:102A20008091E30281508093E3028091E3028370FE
:102A30008093E30281E08093E5028091BE028130C1
:102A4000C9F480E00E94C01515C090917702937E72
:102A500090937702E091E302F0E0E75EFE4F808121
:102A6000892B8093770282E08093E5021092C50261
:102A70001092C4028091DD02882309F059C0809130
:102A8000C6029091C702892BE9F4809177028F7179
:102A9000809377021092E6028091F102882309F474
:102AA0005CC06091DF0281E00E94B909E091F2020E
:102AB000F091F302309709F450C081E081831092C5
:102AC000F1024BC08091BF02813041F48091D2026B
:102AD0009091D302019711F401E002C00023E9F1C3
:102AE000E091E402F0E0E35EFE4F909177029F7187
:102AF0008081892B809377028091E202882321F4E0
:102B00008091E4028F5F03C08091E4028150809342
:102B1000E4028091E40283708093E40281E0809378
:102B2000E6028091BF028130C1F40E94C01515C039
:102B3000909177029F7190937702E091E402F0E028
:102B4000E35EFE4F8081892B8093770282E0809341
:102B5000E6021092C7021092C6028091E702882313
:102B600031F487E792E0612F402F0E94821688B1EE
:102B7000837090917702892B88B91F910F910895E6
:102B8000882321F0813009F04EC027C08091D00207
:102B90009091D102892B49F08091D0029091D1027D
:102BA00001979093D1028093D0028091F002882304
:102BB000D1F52091D0023091D1028091D402909130
:102BC000D5022817390779F580E060E070E00E94AF
:102BD000550881E08093F00208958091D20290918F
:102BE000D302892B49F08091D2029091D3020197B0
:102BF0009093D3028093D2028091F102882399F4BA
:102C00002091D2023091D3028091D6029091D702C6
:102C10002817390741F481E060E070E00E94550810
:102C200081E08093F1020895FF920F931F93CF9359
:102C3000DF9380911503882309F459C0009116038E
:102C400010911703F801C081D1818C819D8101977A
:102C50009D838C83181619060CF449C0898180FF66
:102C600005C08E81882311F481E08E83898181FFE4
:102C700003C0EF81F8850995809115038230A8F093
:102C8000F801828193819093170380931603138236
:102C90001282E0910000F091010084819581181664
:102CA00019063CF0FF24F39405C01092170310920C
:102CB0001603FF24809115038150809315038091A2
:102CC0001503882311F40E947F16898182FF08C0B2
:102CD0008A819B819D838C83C8010E94E80B08C078
:102CE000C8010E94C72389818F7E898301C0FF2488
:102CF0008F2DDF91CF911F910F91FF90089510922A
:102D000076020895FC018091E502823069F4809199
:102D10007B0291E0892780937B02882309F03EC0E3
:102D20008081837E80833AC08091C4029091C502E5
:102D3000C397A4F56623D1F02091C4023091C50257
:102D400080E690E0BC01269FC001279F900D369F32
:102D5000900D1124880F892F881F990B9093D90209
:102D60008093D80281E08093790218C08091790223
:102D70008823A1F08091D8029091D9020197909375
:102D8000D9028093D8028091D8029091D902892BE0
:102D900029F48081837E8083109279028091E602FB
:102DA000823069F480917A0291E0892780937A02D7
:102DB000882309F03EC080818F71808308958091BF
:102DC000C6029091C702C397A4F54423D1F0209185
:102DD000C6023091C70280E690E0AC01249FC0019A
:102DE000259F900D349F900D1124880F892F881FE7
:102DF000990B9093DB028093DA0281E08093780252
:102E00000895809178028823A1F08091DA02909150
:102E1000DB0201979093DB028093DA028091DA0261
:102E20009091DB02892B29F480818F71808310922D
:102E3000780208950E94D9040E94CA030E94A80340
:102E40000E94F7060E942A032FEF89E698E121509D
:102E500080409040E1F700C0000081E00E945203F2
:102E60000895CF93DF93FC01308120917C023213CF
:102E700003C0208121112BC0EC010E94A80388818E
:102E8000813059F028F0823091F0833059F018C029
:102E900087E291E00E94902517C080E491E00E94B3
:102EA000902512C08DE491E00E9490250DC082E62D
:102EB00091E09F938F930E947A250F900F9004C00A
:102EC0008CE791E00E949025888180937C02DF91BD
:102ED000CF910895FC013081FB012081321327C07E
:102EE000FC0141815281FB0121813281421753074C
:102EF00001F5FC0143815481FB0123813481421798
:102F00005307C9F4FC0145815681FB0125813681B7
:102F10004217530791F4FC0147815085FB0127813B
:102F2000308581E04217530749F080E0089580E042
:102F3000089580E0089580E0089580E00895CF939B
:102F4000DF93EC016DE772E00E946A17811114C0F3
:102F50006F8178858D819E810E9403086B817C81C1
:102F600089819A810E94A00789E0FE01ADE7B2E065
:102F700001900D928A95E1F7DF91CF910895FC01C0
:102F800081E0808386E990E09283818394838383C8
:102F900080E991E096838583908787830895CF9316
:102FA000DF93EC0180918F0281110BC09B0141E006
:102FB00061E086E892E00E94AA0B81E080938F0294
:102FC00011C080918C02882369F080E40E94E4049F
:102FD00080E00E94640A888381E00E94640A8983F9
:102FE00010928C02DF91CF9108956F927F928F9211
:102FF0009F92AF92BF92CF92DF92EF92FF920F9388
:103000001F93CF93DF93EC01FB018081813009F0A6
:1030100059C08181811156C083E0888360E082E0DD
:103020000E94B9091F921F921F92662463946F92A7
:103030000F2EF0E97F2EF02D7F921F920F2EF8ECCD
:103040009F2EF02D9F921F920F2EF6E9DF2EF02D6E
:10305000DF9288248394A12CB12CC12C0F2EF0E98F
:10306000EF2EFF24F394F02D08EC10E026E930E079
:1030700041E062E080E00E945E061F921F921F9274
:103080006F927F921F929F921F92DF9226E930E00B
:1030900040E062E080E00E945E0688EC90E09A8367
:1030A00089839C838B8380E991E09E838D839887BD
:1030B0008F838DB79EB742960FB6F8949EBF0FBE12
:1030C0008DBFBAC0808181115BC08181813009F0E0
:1030D00057C083E0888360E082E00E94B9091F92B4
:1030E0001F921F92662463946F920F2EF0E97F2E39
:1030F000F02D7F921F920F2EF8EC9F2EF02D9F92B5
:103100001F920F2EF6E9DF2EF02DDF928824839494
:10311000A12CB12CC12C0F2EF0E9EF2EFF24F3943B
:10312000F02D08EC10E026E930E041E062E080E0BC
:103130000E945E061F921F921F926F927F921F92B3
:103140009F921F92DF92812C26E930E041E062E0FD
:1031500080E00E945E0688EC90E09A8389839C83DD
:103160008B8380E991E09E838D8398878F838DB7D1
:103170009EB742960FB6F8949EBF0FBE8DBF5CC03F
:103180008081813009F058C08181813009F054C0BC
:1031900083E0888360E082E00E94B9091F921F9259
:1031A0001F92DD24D394DF920F2EF0E97F2EF02DB5
:1031B0007F921F920F2EF8EC9F2EF02D9F921F9260
:1031C00086E98F9388248394A12CB12CC12C0F2ED7
:1031D000F0E9EF2EFF24F394F02D08EC10E026E93F
:1031E00030E041E062E080E00E945E061F921F92A4
:1031F0001F92DF927F921F929F92DF928CE28F93B9
:10320000812C2CE231E041E062E080E00E945E0629
:1032100088EC90E09A8389839C838B8380E991E09A
:103220009E838D8398878F838DB79EB742960FB606
:10323000F8949EBF0FBE8DBFDF91CF911F910F916C
:10324000FF90EF90DF90CF90BF90AF909F908F90C6
:103250007F906F900895CF93DF93CDB7DEB7289717
:103260000FB6F894DEBF0FBECDBF0E941A17CE0175
:1032700001960E949519EAE9F2E012821182148205
:103280001382168215821086178210820E94A8036C
:103290008BE891E00E94902588EB9BE00E947D0BDB
:1032A0000E94A8036DE770E0CE0101960E94CF173F
:1032B0006DE770E0CE0101960E94B6198AE992E0AE
:1032C0000E94BF17BE016F5F7F4F8AE992E00E94A4
:1032D000E219BE016F5F7F4F8AE992E00E94F51705
:1032E0008AE992E00E949F178AE992E00E943117D2
:1032F000D9CFCF93DF93EC0185E00E945D030E945C
:1033000035039B838A8384E00E945D030E9435031A
:103310009D838C838A819B812C813D81821B930BB1
:103320009F838E83DF91CF910895CF93DF93EC013C
:103330000E94A80387E991E09F938F930E947A25CA
:103340000F900F9080E00E94990A8823D9F32FEF05
:1033500089E698E1215080409040E1F700C00000EC
:10336000CE010E947919DF91CF910895CF93DF9319
:10337000EC018091990281110BC09B0141E061E059
:1033800080E992E00E94AA0B81E08093990217C025
:1033900080919602882399F080E20E94E40485E0FF
:1033A0000E945D030E9435039B838A8384E00E9410
:1033B0005D030E9435039D838C8310929602DF91FA
:1033C000CF9108954F925F926F927F928F929F92CA
:1033D000AF92BF92CF92DF92EF92FF920F931F9323
:1033E000CF93DF934C01EB016A817B8180E090E019
:1033F0000E94C61F20E030E040EA50E40E94BA205C
:1034000020E030E040E85AE30E94BA20E62EF72E92
:10341000082F192F6C817D8180E090E00E94C61FEB
:1034200020E030E040EA50E40E94BA2020E030E0A2
:1034300040E85AE30E94BA20A62EB72EC82ED92EF5
:10344000762F272F3B2D4C2D5D2D6E2D7F2D802F20
:10345000912F0E94AD1E20E030E040E05FE30E942B
:10346000BA202B013C0126E636E646E65FE30E94E1
:10347000782018160CF0E2C02AE939E949E850E44E
:10348000C301B2010E94191F88230CF0D7C02A2D56
:103490003B2D4C2D5D2D6E2D7F2D802F912F0E9469
:1034A000AC1E2B013C0120E030E040E05FE30E94D5
:1034B000782018160CF49AC020E030E040E05FEB72
:1034C000C301B2010E94191F88230CF0B7C082E02B
:1034D000F401808360E081E00E9472041F930F93E7
:1034E000FF92EF928DED91E09F938F930E947A254A
:1034F00060E080E00E947204DF92CF92BF92AF92B0
:103500008AEE91E09F938F930E947A258DB79EB7A4
:103510000C960FB6F8949EBF0FBE8DBF20E030E032
:1035200040E05FE3C301B2010E94782088237CF170
:1035300020E030E048E452E46E2D7F2D802F912F63
:103540000E94BA200E94901FF401728361830E8052
:10355000DF81C02D20E030E048E453E46A2D7B2D6C
:103560008C2D9D2D0E94BA206B017C01BE0180E054
:1035700090E00E94C61F9B01AC01C701B6010E94EA
:10358000AD1E0E94901FF4017483638357C00E80A8
:10359000DF81C02D20E030E048E453E46E2D7F2D24
:1035A000802F912F0E94BA202B013C01BE0180E0A8
:1035B00090E00E94C61F9B01AC01C301B2010E94B2
:1035C000AC1E0E94901FF4017283618320E030E002
:1035D00048E452E46A2D7B2D8C2D9D2D0E94BA204B
:1035E0000E94901FF4017483638328C082E0F40179
:1035F000808360E081E00E9472041F930F93FF922A
:10360000EF928DED91E09F938F930E947A2560E079
:1036100080E00E947204DF92CF92BF92AF928AEE56
:1036200091E09F938F930E947A258DB79EB70C9659
:103630000FB6F8949EBF0FBE8DBF7ACFDF91CF91AA
:103640001F910F91FF90EF90DF90CF90BF90AF90C0
:103650009F908F907F906F905F904F900895A0E122
:10366000B0E0E5E3FBE10C94E9227C011B016A0177
:10367000FC0117821682838181FF44C39E012F5F64
:103680003F4F3901F7019381F10193FD859193FF3C
:1036900081911F01882309F431C3853239F493FDE8
:1036A000859193FF81911F01853239F4B70190E034
:1036B0000E943E2556016501E5CF10E0512C912C6A
:1036C000FFE1F915D8F08B3279F038F4803279F0D7
:1036D0008332A1F4F92DF0612EC08D3261F0803378
:1036E00069F4292D21602DC0392D3260932E892D4A
:1036F0008460982E2AC0E92DE86015C097FC2DC083
:1037000020ED280F2A3088F496FE06C03AE0139F79
:10371000200D1124122F19C08AE0589E200D11246B
:10372000522EE92DE0629E2E10C08E3231F496FCAE
:10373000E5C2F92DF0649F2E08C08C3621F4292DA6
:103740002068922E02C0883641F4F10193FD8591E4
:1037500093FF81911F018111B3CF9BEB980F9330A1
:1037600020F4992D9061805E07C09BE9980F9330FB
:1037700008F066C1992D9F7E96FF16E09F73992EE3
:10378000853619F49064992E08C0863621F4392FB5
:103790003068932E02C01111115097FE07C01C33E0
:1037A00050F444244394410E27E00BC0183038F005
:1037B00027E017E005C027E09CE3492E02C0212F37
:1037C000412C560184E0A80EB11CF6016081718184
:1037D00082819381042DA3010E9450246C01F98100
:1037E000FC87F0FF02C0F3FF06C091FC06C092FE0A
:1037F00006C000E205C00DE203C00BE201C000E01C
:103800008C858C7019F001115AC29BC297FE10C0B2
:103810004C0CFC85F4FF04C08A81813309F44A947E
:10382000141474F528E0241578F588E0482E2CC08F
:1038300096FC2AC0812F90E08C159D059CF03CEFF2
:10384000C3163FEFD30674F0892D8068982E0AC006
:10385000E2E0F0E0EC0FFD1FE10FF11D808180330D
:1038600019F411501111F4CF97FE0EC04424439463
:10387000410E812F90E0C816D9062CF41C1904C003
:103880004424439401C010E097FE06C01C141D049C
:1038900034F4C601019605C085E090E002C081E0E5
:1038A00090E001110196112331F0212F30E02F5FBC
:1038B0003F4F820F931F252D30E08217930714F49A
:1038C000581A01C0512C892D897049F4552039F0BE
:1038D000B70180E290E00E943E255A94F7CF002382
:1038E00029F0B701802F90E00E943E2593FC09C08B
:1038F000552039F0B70180E390E00E943E255A94AC
:10390000F7CF97FE4CC04601D7FE02C0812C912C08
:10391000C60188199909F301E80FF91FFE87ED87A1
:10392000960124193109388B2F87012F10E011954A
:10393000019511093FEF8316930629F4B7018EE232
:1039400090E00E943E25C814D9044CF08F859889D8
:103950008815990524F4ED85FE85818101C080E3F9
:10396000F1E08F1A91082D853E852F5F3F4F3E87EE
:103970002D87801691062CF0B70190E00E943E251D
:10398000D9CFC814D90441F49A81963320F49533E1
:1039900019F43C8534FF81E3B70190E04EC08A8181
:1039A000813319F09C859F7E9C87B70190E00E942F
:1039B0003E25111105C094FC18C085E690E017C0A3
:1039C000B7018EE290E00E943E251E5F82E001E09A
:1039D000080FF301E80FF11D8081B70190E00E940C
:1039E0003E25802F0113F3CFE6CF85E490E0B701A9
:1039F0000E943E25D7FC06C0C114D10441F4EC85D9
:103A0000E4FF05C0D194C194D1088DE201C08BE2DE
:103A1000B70190E00E943E2580E32AE0C216D1045F
:103A20002CF08F5FFAE0CF1AD108F7CFB70190E002
:103A30000E943E25B701C601C0960E943E2554C192
:103A4000833631F0833779F0833509F056C020C0D2
:103A5000560132E0A30EB11CF6018081898301E09A
:103A600010E0630112C05601F2E0AF0EB11CF60186
:103A7000C080D18096FE03C0612F70E002C06FEF5E
:103A80007FEFC6010E9433258C01F92DFF7714C00A
:103A9000560122E0A20EB11CF601C080D18096FE34
:103AA00003C0612F70E002C06FEF7FEFC6010E947C
:103AB00028258C01F92DF0689F2EF3FD1AC0852D65
:103AC00090E008171907A8F4B70180E290E00E947F
:103AD0003E255A94F4CFF60197FC859197FE81918B
:103AE0006F01B70190E00E943E2551105A94015099
:103AF00011090115110579F7F7C0843611F08936DF
:103B000061F5560197FE09C024E0A20EB11CF60132
:103B100060817181828193810AC0F2E0AF0EB11C95
:103B2000F60160817181072E000C880B990BF92D2D
:103B3000FF769F2E97FF09C09095809570956195AF
:103B40007F4F8F4F9F4FF0689F2E2AE030E0A301F8
:103B50000E94C025C82EC6183FC0092D853721F404
:103B60000F7E2AE030E01DC0097F8F3691F018F4F7
:103B7000883559F0C3C0803719F0883711F0BEC0BE
:103B8000006104FF09C0046007C094FE08C006601D
:103B900006C028E030E005C020E130E002C020E1AE
:103BA00032E0560107FF09C084E0A80EB11CF601FF
:103BB000608171818281938108C0F2E0AF0EB11CF7
:103BC000F6016081718180E090E0A3010E94C02530
:103BD000C82EC6180F77902E96FE0BC0092D0E7FAB
:103BE000C11650F494FE0AC092FC08C0092D0E7E46
:103BF00005C0DC2C092D03C0DC2C01C0D12E04FF34
:103C00000DC0FE01EC0DF11D8081803311F4097EA1
:103C100009C002FF06C0D394D39404C0802F8678D5
:103C200009F0D39403FD11C000FF06C01C2DD5146C
:103C300080F4150D1D190DC0D51458F4B70180E29C
:103C400090E00E943E25D394F7CFD51410F45D1870
:103C500001C0512C04FF10C0B70180E390E00E9426
:103C60003E2502FF17C001FD03C088E790E002C0B7
:103C700088E590E0B7010CC0802F867859F001FFED
:103C800002C08BE201C080E207FD8DE2B70190E047
:103C90000E943E25C11638F4B70180E390E00E94EF
:103CA0003E251150F7CFCA94F301EC0DF11D808130
:103CB000B70190E00E943E25C110F5CF15C0F4E099
:103CC000F51560F584E0581A93FE1FC0011127C056
:103CD0002C8523FF2AC00EEF10E0392D3071932E72
:103CE000F8018491811124C0552009F4E4CCB70176
:103CF00080E290E00E943E255A94F6CFF70186813B
:103D0000978126C08FEF9FEF23C0B70180E290E03C
:103D10000E943E255A945110F8CFD8CF512CB701AC
:103D2000802F90E00E943E25D3CF02E011E0D5CF56
:103D300091108052B70190E00E943E250F5F1F4F07
:103D4000CFCF23E0251510F483E0BDCF512CC0CF99
:103D50006096E2E10C9405235058BB27AA270E94E5
:103D6000C41E0C943E200E94302038F00E94372060
:103D700020F039F49F3F19F426F40C942D200EF412
:103D8000E095E7FB0C942720E92F0E944F2058F381
:103D9000BA17620773078407950720F079F4A6F530
:103DA0000C9471200EF4E0950B2EBA2FA02D0B0170
:103DB000B90190010C01CA01A0011124FF27591B70
:103DC00099F0593F50F4503E68F11A16F040A22F76
:103DD000232F342F4427585FF3CF469537952795E7
:103DE000A795F0405395C9F77EF41F16BA0B620BE6
:103DF000730B840BBAF09150A1F0FF0FBB1F661F2D
:103E0000771F881FC2F70EC0BA0F621F731F841F6F
:103E100048F4879577956795B795F7959E3F08F095
:103E2000B0CF9395880F08F09927EE0F9795879557
:103E300008950E94032008F481E008950E94321F33
:103E40000C943E200E94372058F00E94302040F011
:103E500029F45F3F29F00C94272051110C94722013
:103E60000C942D200E944F2068F39923B1F3552321
:103E700091F3951B550BBB27AA276217730784077D
:103E800038F09F5F5F4F220F331F441FAA1FA9F313
:103E900035D00E2E3AF0E0E832D091505040E69501
:103EA000001CCAF72BD0FE2F29D0660F771F881F62
:103EB000BB1F261737074807AB07B0E809F0BB0B55
:103EC000802DBF01FF2793585F4F3AF09E3F510569
:103ED00078F00C9427200C9472205F3FE4F3983E16
:103EE000D4F3869577956795B795F7959F5FC9F752
:103EF000880F911D9695879597F90895E1E0660FD3
:103F0000771F881FBB1F621773078407BA0720F04B
:103F1000621B730B840BBA0BEE1F88F7E0950895B4
:103F20000E94971F6894B1110C94722008950E940A
:103F3000572088F09F5798F0B92F9927B751B0F0C4
:103F4000E1F0660F771F881F991F1AF0BA95C9F71D
:103F500014C0B13091F00E947120B1E008950C942A
:103F60007120672F782F8827B85F39F0B93FCCF3DD
:103F7000869577956795B395D9F73EF4909580959A
:103F8000709561957F4F8F4F9F4F0895E89409C0BA
:103F900097FB3EF490958095709561957F4F8F4F7C
:103FA0009F4F9923A9F0F92F96E9BB279395F69592
:103FB000879577956795B795F111F8CFFAF4BB0F10
:103FC00011F460FF1BC06F5F7F4F8F4F9F4F16C074
:103FD000882311F096E911C0772321F09EE8872FFE
:103FE000762F05C0662371F096E8862F70E060E0BA
:103FF0002AF09A95660F771F881FDAF7880F969533
:10400000879597F90895990F0008550FAA0BE0E8D6
:10401000FEEF16161706E807F907C0F0121613068A
:10402000E407F50798F0621B730B840B950B39F4CA
:104030000A2661F0232B242B252B21F408950A2630
:1040400009F4A140A6958FEF811D811D089597F970
:104050009F6780E870E060E008959FEF80EC08952E
:1040600000240A9416161706180609060895002457
:104070000A9412161306140605060895092E0394D1
:10408000000C11F4882352F0BB0F40F4BF2B11F445
:1040900060FF04C06F5F7F4F8F4F9F4F089557FDA4
:1040A0009058440F551F59F05F3F71F04795880FA6
:1040B00097FB991F61F09F3F79F08795089512163D
:1040C00013061406551FF2CF4695F1DF08C01616E9
:1040D00017061806991FF1CF86957105610508949A
:1040E0000895E894BB2766277727CB0197F90895B1
:1040F0000E94032008F48FEF08950E945720A8F132
:104100009E57B0F1985160F039F1983070F5092E52
:104110009927660F771F881F991F0A94D1F71CC033
:10412000BB27993F4CF4B111B1E0B62B672F782F24
:104130008827985FB1F708C0869577956795B795FA
:1041400008F4B1609395C1F7BB0F30F411F460FF30
:1041500003C06F5F7F4F8F4F3EF4909580957095B1
:1041600061957F4F8F4F9F4F089568940C947220F4
:104170000C9471200E94CD200C943E200E9430208F
:1041800038F00E94372020F0952311F00C9427205E
:104190000C942D2011240C9472200E944F2070F357
:1041A000959FC1F3950F50E0551F629FF001729FDC
:1041B000BB27F00DB11D639FAA27F00DB11DAA1FEB
:1041C000649F6627B00DA11D661F829F2227B00D38
:1041D000A11D621F739FB00DA11D621F839FA00DC3
:1041E000611D221F749F3327A00D611D231F849F13
:1041F000600D211D822F762F6A2F11249F5750406A
:104200009AF0F1F088234AF0EE0FFF1FBB1F661FE4
:10421000771F881F91505040A9F79E3F510580F0AD
:104220000C9427200C9472205F3FE4F3983ED4F363
:10423000869577956795B795F795E7959F5FC1F751
:10424000FE2B880F911D9695879597F90895FA0191
:10425000EE0FFF1F309621053105A1F161157105A3
:1042600061F48038BFE39B0749F168949038810579
:1042700061F08038BFEF9B0741F099234AF5FF3F7B
:10428000E1053105210519F1E8940894E795D90174
:10429000AA2329F4AB2FBE2FF85FD0F310C0FF5F25
:1042A00070F4A695E0F7F73950F019F0FF3A38F4BA
:1042B0009F779F930DD00F9007FC9058089546F07C
:1042C0000C942D2060E070E080E89FE308954FE7B4
:1042D0009F775F934F933F932F930E9422222F91BA
:1042E0003F914F915F910E94BA200C947F2129F455
:1042F00016F00C9427200C9471200C942D200E9411
:104300005720A8F39638A0F707F80F92E8942BE30C
:104310003AEA48EB5FE70E94D0200F920F920F928B
:104320004DB75EB70F920E946A22ECE7F0E00E9460
:10433000B1214F915F91EF91FF91E595EE1FFF1F26
:1043400049F0FE57E0684427EE0F441FFA95E1F765
:104350004195550B0E94E4210F9007FE0C94D82143
:104360000895DF93CF931F930F93FF92EF92DF9205
:104370007B018C01689406C0DA2EEF010E94CD20EB
:10438000FE01E894A5912591359145915591A6F3AB
:10439000EF010E94C41EFE019701A801DA9469F79B
:1043A000DF90EF90FF900F911F91CF91DF910895D3
:1043B0009B01AC0160E070E080E89FE30C941E1F5D
:1043C0000C9427200C949E220E945720D8F3992306
:1043D000C9F3940F511DA3F39150504094F059F03C
:1043E000882332F0660F771F881F91505040C1F725
:1043F0009E3F51052CF7880F911D9695879597F94B
:1044000008955F3FACF0983E9CF0BB27869577956A
:104410006795B79508F4B1609395C1F7BB0F58F74E
:1044200011F460FFE8CF6F5F7F4F8F4F9F4FE3CF57
:104430000C94722016F00C949E220C942D206894FB
:104440000C9427200E945720A8F39923C1F3AEF3C0
:10445000DF93CF931F930F93FF92C92FDD278823FC
:104460002AF02197660F771F881FDAF720E030E0E7
:1044700040E85FEB9FE3883920F0803E38F02196DA
:104480008F770E94AD1EE4EAF0E004C00E94AD1EEA
:10449000E1EDF0E00E94B1218B01BE01EC01FB2EA9
:1044A0006F5771097595771F880B990B0E94C81F6C
:1044B00028E132E741E35FE30E94CD20AF2D980170
:1044C000AE01FF900F911F91CF91DF910E94C41E0A
:1044D0000C943E20FA01DC01AA0FBB1F9B01AC012A
:1044E000BF5728F4222733274427507820C0B751DC
:1044F00090F4AB2F0024469537952795011CA39582
:10450000D2F3002071F0220F331F441FB395DAF36A
:104510000ED00C94AC1E61307105A0E88A07B94634
:1045200030F49B01AC016627772788279078309676
:1045300021F0208331834283538308959F3F31F0DC
:10454000915020F4879577956795B795880F911DC1
:104550009695879597F90895DB018F939F930E9415
:10456000DE22BF91AF91A29F800D911DA39F900D60
:10457000B29F900D11240895A1E21A2EAA1BBB1B15
:10458000FD010DC0AA1FBB1FEE1FFF1FA217B3071F
:10459000E407F50720F0A21BB30BE40BF50B661F35
:1045A000771F881F991F1A9469F7609570958095F9
:1045B00090959B01AC01BD01CF0108950E9420237D
:1045C000A59F900DB49F900DA49F800D911D112467
:1045D00008952F923F924F925F926F927F928F92A7
:1045E0009F92AF92BF92CF92DF92EF92FF920F9382
:1045F0001F93CF93DF93CDB7DEB7CA1BDB0B0FB68C
:10460000F894DEBF0FBECDBF09942A883988488848
:104610005F846E847D848C849B84AA84B984C884DE
:10462000DF80EE80FD800C811B81AA81B981CE0FD5
:10463000D11D0FB6F894DEBF0FBECDBFED010895BA
:10464000A29FB001B39FC001A39F700D811D1124D3
:10465000911DB29F700D811D1124911D08950F931E
:104660001F93CF93DF938230910510F482E090E0A6
:10467000E0911A03F0911B0320E030E0A0E0B0E0ED
:10468000309719F1408151810281138148175907F0
:10469000C8F08417950769F4109731F012960C93BF
:1046A000129713961C9327C000931A0310931B03B1
:1046B00022C02115310519F04217530718F49A0149
:1046C000BD01EF01DF01F801DBCF21153105F9F064
:1046D000281B390B2430310580F48A819B816115B8
:1046E000710521F0FB019383828304C090931B0327
:1046F00080931A03FE01329644C0FE01E20FF31FBD
:104700008193919322503109398328833AC02091B3
:10471000180330911903232B41F420912301309188
:104720002401309319032093180320912101309123
:1047300022012115310541F42DB73EB740912501E5
:1047400050912601241B350BE0911803F0911903B9
:10475000E217F307A0F42E1B3F0B2817390778F058
:10476000AC014E5F5F4F2417350748F04E0F5F1FB7
:1047700050931903409318038193919302C0E0E092
:10478000F0E0CF01DF91CF911F910F910895CF936A
:10479000DF93009709F481C0FC01329713821282E3
:1047A000A0911A03B0911B03109781F420813181ED
:1047B000820F931F2091180330911903281739078E
:1047C00051F5F0931903E093180367C0ED0120E061
:1047D00030E0CE17DF0740F44A815B819E0141152E
:1047E0005105F1F0EA01F5CFD383C28340815181B5
:1047F000840F951FC817D90759F488819981840FB0
:10480000951F0296918380838A819B819383828303
:104810002115310529F4F0931B03E0931A033DC0E1
:10482000E901FB83EA8349915991C40FD51FEC1725
:10483000FD0761F480819181840F951F0296E90143
:1048400099838883828193819B838A83E0E0F0E06F
:1048500012968D919C911397009719F0FD01DC0140
:10486000F7CF8D919C9111979D012E5F3F4F820F45
:10487000931F20911803309119032817390769F401
:10488000309729F410921B0310921A0302C013826E
:104890001282B0931903A0931803DF91CF9108956A
:1048A000283008F027E03327DA01990F311D87FD02
:1048B000916000966105710539F432602E5F3D9379
:1048C00030E32A95E1F708959F3F30F08038710575
:1048D000610509F03C5F3C5F3D93913008F08068D2
:1048E000911DDF93CF931F930F93FF92EF92192F98
:1048F000987F9695E92F96959695E90FFF27E05AB0
:10490000FE4F99273327EE24FF24A701E7010590E6
:104910000894079428F4360FE71EF81E491F511D0E
:10492000660F771F881F991F0694A1F705900794BB
:1049300028F4E70EF81E491F561FC11D770F881F68
:10494000991F661F0694A1F70590079428F4F80EA6
:10495000491F561FC71FD11D880F991F661F771F3C
:104960000694A1F70590079420F4490F561FC71F1E
:10497000D81F990F661F771F881F0694A9F7849187
:104980001095177041F0D695C79557954795F794B0
:10499000E7941A95C1F7E6E0F1E068941590159157
:1049A00035916591959105907FE27395E118F10A33
:1049B000430B560BC90BD009C0F7E10CF11E431F86
:1049C000561FC91FD01D7EF4703311F48A95E6CFAF
:1049D000E894015030F0080F0AF40027021708F499
:1049E000202F2395022F7A3328F079E37D932A959F
:1049F000E9F710C07D932A9589F6069497956795F7
:104A0000379517951794E118F10A430B560BC90B0C
:104A1000D00998F023957E9173957A3308F070E36E
:104A20007C932013B8F77E9170617D9330F083956D
:104A300071E37D9370E32A95E1F71124EF90FF90E5
:104A40000F911F91CF91DF91992787FD9095089540
:104A5000FC010590615070400110D8F78095909549
:104A60008E0F9F1F0895FC0161507040019001104E
:104A7000D8F7809590958E0F9F1F08950F931F93E1
:104A8000CF93DF93FB01238121FD03C08FEF9FEFC5
:104A90002CC022FF16C046815781248135814217E0
:104AA000530744F4A081B1819D012F5F3F4F3183B3
:104AB00020838C93268137812F5F3F4F3783268356
:104AC00014C08B01EC01FB010084F185E02D0995F8
:104AD000892BE1F6D80116968D919C911797019636
:104AE00017969C938E931697CE01DF91CF911F91CD
:104AF0000F910895A0E0B0E0E0E8F5E20C94F9220F
:104B0000AE014B5F5F4FFA0161917191AF018091EE
:104B10001E0390911F030E942F1BE2E00C941523AB
:104B20000F931F93CF93DF93E0911E03F0911F0328
:104B3000238121FF1BC08C01D0E0C0E0F8018191EE
:104B40008F0160911E0370911F03DB011896ED9198
:104B5000FC911997882331F00995892B79F3DFEFC0
:104B6000CFEFECCF8AE00995892B19F08FEF9FEFFB
:104B700002C08D2F9C2FDF91CF911F910F9108952F
:104B8000FA01AA27283051F1203181F1E8946F937E
:104B90006E7F6E5F7F4F8F4F9F4FAF4FB1E03ED024
:104BA000B4E03CD0670F781F891F9A1FA11D680FC2
:104BB000791F8A1F911DA11D6A0F711D811D911DF5
:104BC000A11D20D009F468943F912AE0269F11246A
:104BD0003019305D3193DEF6CF010895462F4770CE
:104BE000405D4193B3E00FD0C9F7F6CF462F4F7029
:104BF000405D4A3318F0495D31FD4052419302D087
:104C0000A9F7EACFB4E0A69597958795779567952C
:104C1000BA95C9F700976105710508959B01AC012C
:104C20000A2E06945795479537952795BA95C9F753
:104C3000620F731F841F951FA01D0895F894FFCF66
:104C40001F0201030301010110080400000002001B
:104C5000000000B00E00000000180C041060C080BE
:104C6000200000220320004C6574206D65207761D0
:104C70006B652075700A706C656173652E2E2E0051
:104C80004578706C6F72696E672E2E2E0047455402
:104C9000204F5554204348414C4C454E4745212117
:104CA0002100476F20746F20746865206C69676805
:104CB000742C0A4A657272792E2E2E00556E6B6E18
:104CC0006F776E2073746174652100537461727420
:104CD000696E672E2E2E004543454E203334353005
:104CE0003A204D6F6220526F620A4C6162353A2061
:104CF0004C6967687420486F6D696E670A51756901
:104D00006E6E2026205065746572736F6E0A53575D
:104D1000333A2043616C696272617465004C656668
:104D200074202050523A202566005269676874202A
:084D300050523A2025660000F4
:00000001FF
